:020000040800F2
:1080000000000220F55B0108ADA90008B1A9000835
:10801000B5A90008B9A90008BDA900080000000022
:10802000000000000000000000000000C1A90008DE
:10803000C5A9000800000000C9A90008CDA90008D2
:10804000415C0108415C0108415C0108415C010898
:10805000415C0108415C0108415C0108415C010888
:10806000415C0108415C0108415C0108415C010878
:10807000415C0108415C01085DC80008415C0108E1
:10808000415C0108415C0108415C0108415C010858
:10809000415C0108415C0108415C0108415C010848
:1080A000415C0108415C0108415C0108415C010838
:1080B000415C0108415C0108415C0108415C010828
:1080C000415C0108415C0108415C0108415C010818
:1080D000415C0108415C0108415C0108415C010808
:1080E000415C0108415C0108415C0108415C0108F8
:1080F000415C0108415C0108415C0108415C0108E8
:10810000415C0108415C0108415C0108415C0108D7
:10811000415C0108415C0108415C0108415C0108C7
:10812000415C0108415C0108415C0108415C0108B7
:10813000415C0108415C0108415C0108415C0108A7
:10814000415C0108415C0108415C0108415C010897
:10815000415C0108415C0108415C0108415C010887
:10816000415C0108415C0108415C0108415C010877
:10817000415C0108415C0108415C0108415C010867
:10818000415C0108415C01080000000000000000A3
:10819000844641EA000313F003036DD1403A41D312
:1081A00051F8043B40F8043B51F8043B40F8043BD1
:1081B00051F8043B40F8043B51F8043B40F8043BC1
:1081C00051F8043B40F8043B51F8043B40F8043BB1
:1081D00051F8043B40F8043B51F8043B40F8043BA1
:1081E00051F8043B40F8043B51F8043B40F8043B91
:1081F00051F8043B40F8043B51F8043B40F8043B81
:1082000051F8043B40F8043B51F8043B40F8043B70
:1082100051F8043B40F8043B51F8043B40F8043B60
:10822000403ABDD2303211D351F8043B40F8043B00
:1082300051F8043B40F8043B51F8043B40F8043B40
:1082400051F8043B40F8043B103AEDD20C3205D310
:1082500051F8043B40F8043B043AF9D2043208D008
:10826000D2071CBF11F8013B00F8013B01D30B887A
:1082700003806046704700BF082A13D38B078DD058
:1082800010F003038AD0C3F10403D21ADB071CBF2A
:1082900011F8013B00F8013B80D331F8023B20F894
:1082A000023B7BE7043AD9D3013A11F8013B00F8CD
:1082B000013BF9D20B7803704B7843708B78837055
:1082C0006046704781F0004102E000BF83F0004348
:1082D00030B54FEA41044FEA430594EA050F08BF61
:1082E00090EA020F1FBF54EA000C55EA020C7FEA25
:1082F000645C7FEA655C00F0E2804FEA5454D4EBA2
:108300005555B8BF6D420CDD2C4480EA020281EA6B
:10831000030382EA000083EA010180EA020281EAA3
:108320000303362D88BF30BD11F0004F4FEA0131F5
:108330004FF4801C4CEA113102D0404261EB410104
:1083400013F0004F4FEA03334CEA133302D052428A
:1083500063EB430394EA050F00F0A780A4F1010446
:10836000D5F1200E0DDB02FA0EFC22FA05F2801880
:1083700041F1000103FA0EF2801843FA05F3594166
:108380000EE0A5F120050EF1200E012A03FA0EFCE5
:1083900028BF4CF0020C43FA05F3C01851EBE3710F
:1083A00001F0004507D54FF0000EDCF1000C7EEB2C
:1083B00000006EEB0101B1F5801F1BD3B1F5001F6A
:1083C0000CD349085FEA30004FEA3C0C04F1010489
:1083D0004FEA445212F5800F80F09A80BCF1004FB2
:1083E00008BF5FEA500C50F1000041EB045141EA34
:1083F000050130BD5FEA4C0C404141EB010111F435
:10840000801FA4F10104E9D191F0000F04BF0146DF
:108410000020B1FA81F308BF2033A3F10B03B3F1BD
:1084200020020CDA0C3208DD02F1140CC2F10C024D
:1084300001FA0CF021FA02F10CE002F11402D8BFAB
:10844000C2F1200C01FA02F120FA0CFCDCBF41EA77
:108450000C019040E41AA2BF01EB0451294330BD46
:108460006FEA04041F3C1CDA0C340EDC04F1140423
:10847000C4F1200220FA04F001FA02F340EA0300FA
:1084800021FA04F345EA030130BDC4F10C04C4F140
:10849000200220FA02F001FA04F340EA0300294620
:1084A00030BD21FA04F0294630BD94F0000F83F46A
:1084B000801306BF81F480110134013D4EE77FEA4D
:1084C000645C18BF7FEA655C29D094EA050F08BF99
:1084D00090EA020F05D054EA000C04BF194610467A
:1084E00030BD91EA030F1EBF0021002030BD5FEABE
:1084F000545C05D14000494128BF41F0004130BDE6
:1085000014F580043CBF01F5801130BD01F0004539
:1085100045F0FE4141F470014FF0000030BD7FEAAC
:10852000645C1ABF194610467FEA655C1CBF0B46A7
:10853000024650EA013406BF52EA033591EA030FBE
:1085400041F4002130BD00BF90F0000F04BF0021B6
:10855000704730B54FF4806404F132044FF00005E9
:108560004FF0000150E700BF90F0000F04BF002162
:10857000704730B54FF4806404F1320410F00045C8
:1085800048BF40424FF000013EE700BF42004FEAC3
:10859000E2014FEA31014FEA02701FBF12F07F4340
:1085A00093F07F4F81F06051704792F0000F14BF3D
:1085B00093F07F4F704730B54FF4607401F0004581
:1085C00021F0004120E700BF50EA010208BF7047D8
:1085D00030B54FF000050AE050EA010208BF7047CD
:1085E00030B511F0004502D5404261EB41014FF436
:1085F000806404F132045FEA915C3FF4DCAE4FF03A
:1086000003025FEADC0C18BF03325FEADC0C18BF20
:10861000033202EBDC02C2F1200300FA03FC20FA71
:1086200002F001FA03FE40EA0E0021FA02F11444BE
:10863000C1E600BF70B54FF0FF0C4CF4E06C1CEAD3
:1086400011541DBF1CEA135594EA0C0F95EA0C0F48
:1086500000F0DEF82C4481EA030621EA4C5123EABB
:108660004C5350EA013518BF52EA033541F48011EA
:1086700043F4801338D0A0FB02CE4FF00005E1FB9D
:1086800002E506F00042E0FB03E54FF00006E1FBE7
:1086900003569CF0000F18BF4EF0010EA4F1FF042A
:1086A000B6F5007F64F5407404D25FEA4E0E6D416A
:1086B00046EB060642EAC62141EA55514FEAC5207B
:1086C00040EA5E504FEACE2EB4F1FD0C88BFBCF5F7
:1086D000E06F1ED8BEF1004F08BF5FEA500E50F1A8
:1086E000000041EB045170BD06F0004646EA01016E
:1086F00040EA020081EA0301B4EB5C04C2BFD4EBA0
:108700000C0541EA045170BD41F480114FF0000E98
:10871000013C00F3AB8014F1360FDEBF002001F006
:10872000004170BDC4F10004203C35DA0C341BDC80
:1087300004F11404C4F1200500FA05F320FA04F052
:1087400001FA05F240EA020001F0004221F0004186
:1087500010EBD37021FA04F642EB06015EEA430EF9
:1087600008BF20EAD37070BDC4F10C04C4F1200529
:1087700000FA04F320FA05F001FA04F240EA0200DC
:1087800001F0004110EBD37041F100015EEA430EAD
:1087900008BF20EAD37070BDC4F1200500FA05F2CD
:1087A0004EEA020E20FA04F301FA05F243EA02034C
:1087B00021FA04F001F0004121FA04F220EA02005B
:1087C00000EBD3705EEA430E08BF20EAD37070BDA1
:1087D00094F0000F0FD101F00046400041EB010181
:1087E00011F4801F08BF013CF7D041EA060195F063
:1087F000000F18BF704703F00046520043EB03031D
:1088000013F4801F08BF013DF7D043EA0603704709
:1088100094EA0C0F0CEA135518BF95EA0C0F0CD014
:1088200050EA410618BF52EA4306D1D181EA03015A
:1088300001F000414FF0000070BD50EA410606BF54
:108840001046194652EA430619D094EA0C0F02D199
:1088500050EA013613D195EA0C0F05D152EA0336DE
:108860001CBF104619460AD181EA030101F00041FC
:1088700041F0FE4141F470014FF0000070BD41F045
:10888000FE4141F4780170BD70B54FF0FF0C4CF41F
:10889000E06C1CEA11541DBF1CEA135594EA0C0F3E
:1088A00095EA0C0F00F0A7F8A4EB050481EA030E8B
:1088B00052EA03354FEA013100F088804FEA033372
:1088C0004FF0805545EA131343EA12634FEA022240
:1088D00045EA111545EA10654FEA00260EF0004101
:1088E0009D4208BF964244F1FD0404F5407402D253
:1088F0005B084FEA3202B61A65EB03055B084FEAE4
:1089000032024FF480104FF4002CB6EB020E75EBE0
:10891000030E22BFB61A754640EA0C005B084FEA08
:108920003202B6EB020E75EB030E22BFB61A754685
:1089300040EA5C005B084FEA3202B6EB020E75EBD0
:10894000030E22BFB61A754640EA9C005B084FEA48
:108950003202B6EB020E75EB030E22BFB61A754655
:1089600040EADC0055EA060E18D04FEA051545EA44
:1089700016754FEA06164FEAC30343EA52734FEAED
:10898000C2025FEA1C1CC0D111F4801F0BD141EA66
:1089900000014FF000004FF0004CB6E711F4801FCB
:1089A00004BF01430020B4F1FD0C88BFBCF5E06FAB
:1089B0003FF6AFAEB5EB030C04BFB6EB020C5FEABB
:1089C000500C50F1000041EB045170BD0EF0004E10
:1089D0004EEA113114EB5C04C2BFD4EB0C0541EA42
:1089E000045170BD41F480114FF0000E013C90E63F
:1089F00045EA060E8DE60CEA135594EA0C0F08BF03
:108A000095EA0C0F3FF43BAF94EA0C0F0AD150EA01
:108A100001347FF434AF95EA0C0F7FF425AF104694
:108A200019462CE795EA0C0F06D152EA03353FF4BC
:108A3000FDAE1046194622E750EA410618BF52EA39
:108A400043067FF4C5AE50EA41047FF40DAF52EA0D
:108A500043057FF4EBAE12E74FF0FF3C06E000BFAA
:108A60004FF0010C02E000BF4FF0010C4DF804CDB7
:108A70004FEA410C7FEA6C5C4FEA430C18BF7FEA77
:108A80006C5C1BD001B050EA410C0CBF52EA430CA5
:108A900091EA030F02BF90EA020F0020704710F125
:108AA000000F91EA030F58BF994208BF90422CBFB4
:108AB000D8176FEAE37040F0010070474FEA410CAD
:108AC0007FEA6C5C02D150EA013C07D14FEA430CCB
:108AD0007FEA6C5CD6D152EA033CD3D05DF8040B3C
:108AE000704700BF8446104662468C46194663466E
:108AF00000E000BF01B5FFF7B7FF002848BF10F145
:108B0000000F01BD4DF808EDFFF7F4FF0CBF012089
:108B100000205DF808FB00BF4DF808EDFFF7EAFF05
:108B200034BF012000205DF808FB00BF4DF808EDC0
:108B3000FFF7E0FF94BF012000205DF808FB00BFB5
:108B40004DF808EDFFF7CEFF94BF012000205DF83F
:108B500008FB00BF4DF808EDFFF7C4FF34BF01204C
:108B600000205DF808FB00BF4FEA4102B2F1E0438C
:108B700024BFB3F5001CDCF1FE5C0DD901F0004C04
:108B80004FEAC0024CEA5070B2F1004F40EB830054
:108B900008BF20F00100704711F0804F21D113F180
:108BA0003872BCBF01F00040704741F480114FEAB9
:108BB0005252C2F11802C2F1200C10FA0CF320FA42
:108BC00002F018BF40F001004FEAC1234FEAD3235F
:108BD00003FA0CFC40EA0C0023FA02F34FEA4303C9
:108BE000CCE77FEA625307D150EA01331EBF4FF052
:108BF000FE4040F44000704701F0004040F0FE406D
:108C000040F40000704700BF2DE9F04106468C306B
:108C10001D460F469046069C02F00AFF06F19000A2
:108C200002F044FFC6F8AC80C6F8A870C6F8B05091
:108C3000C6F8B44097F828202B69042AA8BF04225C
:108C400093422A614CDA06EE103A05F5D63191EDE1
:108C5000317ADFED6C7AF8EEC66A03F5D640A6EEFF
:108C6000A77A00F1300C581C05EB8C0E82428EED79
:108C7000017A35DD00EE100A91ED311AF8EEC00AE6
:108C800003F5D648A0EEA71A08F1310C981C05EBA5
:108C90008C0E82428EED011A22DD01EE900AD1ED9A
:108CA000312AB8EEE12A03F5D648E2EE272A08F188
:108CB000320CD81C05EB8C0E8242CEED012A0FDD62
:108CC00003EE100A91ED314AF8EEC33A03F5D642AD
:108CD000A3EEA74A02F1330305EB830181ED014ABC
:108CE0000120687097F8293095F80280984500D0E7
:108CF000AB7097F82820D4F89036042AA8BF042235
:108D00009342C4F890264CDA05EE903A04F5906C44
:108D1000DCED004A9FED3C5AB8EEE57A03EB031513
:108D2000E7EE054A04EB850E581C0EF59061824271
:108D3000C1ED004A35DD07EE900ADCED006AB8EEC1
:108D4000E76A00EB0015E6EE056A04EB8508991C5E
:108D500008F5906E9142CEED006A22DA00EE101A0C
:108D60009CED001AF8EEC00A01EB0110A0EE851A86
:108D700004EB8005033305F590689A4288ED001AEC
:108D80000FDD01EE903ADCED002AB8EEE12A03EBAC
:108D90000311E2EE052A04EB810C0CF5906ECEED8A
:108DA000002AD4F88806824202DC0022C4F8882611
:108DB00097F8293094F89886144984F89836A1FBDE
:108DC0000852A1FB035C4FEA5C054FEA520E05EB2B
:108DD00045000EEB4E011D1AC1EB08085FFA88F240
:108DE0005FFA85FC94451CBF012284F8D02797F8D0
:108DF0002A70002F0CBF0024052486F89C40BDE893
:108E0000F08100BFCDCC4C3D0AD7233CABAAAAAA27
:108E1000D0F8B020D0F8A830116983F82810D0F825
:108E2000B020D0F8A830917883F82910D0F8A800A5
:108E300002F0C4BCF8B5AC4D2B680446591C903008
:108E4000296002F055FE94F89030802B00F0D48019
:108E500003BBD4F8942002B32968A34F8A1A40F6C2
:108E6000B830824219DDD4F88810261D06EBC10007
:108E700001F1010E4FF0040C06F831C00EF00F0E98
:108E800042604380C4F888E03A68C4F8943094F8AB
:108E9000903022607F2B00F0C78094F89130802BB7
:108EA00000F090800BBBD4F898200AB328688E4F4E
:108EB000821A40F6B83E72451ADDD4F88810261D95
:108EC00006EBC1004FF0040C01F1010E06F831C0B1
:108ED0000EF00F01012642604680C4F888103A68FF
:108EE000C4F8983094F8913022607F2B00F0C08055
:108EF00028682A6894F89CE000F07F01D2B24029EB
:108F000094BF00210121802A94BF00220122BEF1DA
:108F1000070F52D8DFE81EF0080050015E01CB00B9
:108F2000D900EA001D016C0128682968D4F8B03026
:108F3000C1F344111A699B780F2984BFC1F11F0145
:108F4000C9B2012AD4BF00270127022ACCBF0026BC
:108F5000012613F1000E18BF4FF0010E012B8CBF3C
:108F600000250125032A00F00F0C84F88C7084F88A
:108F70008E6084F88DE084F88F5000F05081022BD1
:108F80000BD9032B40F042810022614540F245811C
:108F9000012684F88D2084F88F60D4F8A400D4F8DA
:108FA000A010431CC4F8A43039B100274D1EC4F8EA
:108FB000A05084F88C7084F88E7004F18C0002F05C
:108FC00057FDF8BDD4F8883004F1040C0CEBC30154
:108FD0005E1C06F00F000422012700260CF8332047
:108FE0004F804E60C4F8880029682B68C4F8983018
:108FF000216094F8913055E7D4F88830201D00EBBB
:10900000C3025E1C0021042706F00F0600F833702F
:1090100051805160C4F8886028682B68C4F8943087
:10902000206094F8903013E7D4F89430002B3FF48C
:1090300034AF2F68D4F88820261D791C06EBC200B7
:109040004FF0040E06F832E0CB1A00214360418055
:1090500002F1010C0CF00F0794F89130C4F88870FD
:109060002A68C4F89410802B22607FF41BAFA9E714
:10907000D4F89830002B3FF43BAF2F68D4F8882009
:1090800004F1040C0CEBC201781C561CC31A06F048
:109090000F06042001270CF832004B604F80C4F803
:1090A00088602A6822600021C4F8981020E7002513
:1090B00084F88C2084F88D2084F88E5084F88F50AA
:1090C00004F18C0002F0D4FCF8BD002384F88E205B
:1090D00084F88F2084F88C3084F88D3004F18C0073
:1090E00002F0C6FCF8BD00BF0CC901202F68514931
:1090F0002868514B2D68A1FB006CCCEB00020CEBF7
:109100005206A3FB050EC6F384000F28CEF304110C
:1091100084BFC0F11F00C0B20F2988BFC1F11F0179
:1091200007F00F0788BFC9B2B84294BF00200120E2
:10913000B94294BF0021012184F88C0084F88F008B
:1091400084F88E1084F88D1004F18C0002F090FCED
:10915000F8BD2F68394E2868394BA6FB0751C1F37B
:1091600044020F2AA3FB0065C5F3840684BFC2F145
:109170001F02D2B20F2E84BFC6F11F06F6B2062A16
:109180008CBF00270127072A94BF00220122072E47
:1091900094BF00200120062E8CBF0026012684F8F3
:1091A0008D0084F88C7084F88E2084F88F6004F130
:1091B0008C0002F05DFCF8BD002684F88C1084F869
:1091C0008E1084F88D6084F88F6004F18C0002F0BA
:1091D0004FFCF8BD002284F88D1084F88F1084F8BD
:1091E0008C2084F88E2004F18C0002F041FCF8BD44
:1091F000002584F88C1084F88D1084F88E5084F843
:109200008F5004F18C0002F033FCF8BD614594BF2F
:1092100000220122042B3FF4B8AE0026B9E66145D6
:109220004FF0010794BF0022012284F88C7084F86B
:109230008E20A4E625499224F1F0F0F0398EE3382F
:109240004FECC44ED0F8AC30DFED1D7A5A8993ED67
:109250002D7ADFED1C6A06EE102AF1EE470AB8EE11
:10926000460AF0EE605AE0EE275A10B5F4EEE65AE0
:10927000F1EE10FA04461BDDDFED131AF4EEE15AAD
:10928000F1EE10FA14D5B3EE082AC2EE252ADB6AF5
:10929000D0F8A800B2EE083AA0EEA23AC3ED012A37
:1092A00083ED003A02F08AFA002284F89C2010BD77
:1092B0000121072083F8C01084F89C0010BD00BF76
:1092C00000008037CDCCCCBECDCCCCBDD0F8AC30FE
:1092D0009FED1A6A5A89D3ED2E7A9FED197A05EE21
:1092E000902AB8EE650AF6EE006AE0EE067A10B54E
:1092F00067EEA60A0446F4EEC70AF1EE10FA15DB93
:109300009FED101AF4EEC10AF1EE10FA0ED5DA6AEA
:10931000D0F8A800C2ED070A012183F8C01002F0BE
:109320004DFA4FF0000C84F89CC010BD01210720BD
:1093300083F8C01084F89C0010BD00BF0000803787
:109340003333333FCDCC4C3F70B44B88C21A92F8C4
:10935000914074B990F89C30012B00F00F810121ED
:1093600080F89C100022C0F89820C0F8942070BCAF
:109370007047002B00F08C80012BF8D1496840F633
:10938000B735A94240F3CE81D0F8AC30DFEDDE7ABC
:1093900093ED217AB4EEE77AF1EE10FA4ED59FED17
:1093A000DB0AD3ED226AF4EEC06AF1EE10FA45DD75
:1093B000D3ED230AF4EEE70AF1EE10FA3ED593ED71
:1093C000251AB4EEC01AF1EE10FA37DDD3ED241AE7
:1093D0009FEDCF2AF4EEC21AF1EE10FA2EDDDFED8A
:1093E000CD2AF4EEE21AF1EE10FA27D593ED283AE1
:1093F000FFEE003AB4EEE33AF1EE10FA1ED593ED2B
:10940000264AF7EE004AB4EEE44AF1EE10FA15DD12
:1094100093ED295AB4EEE35AF1EE10FA0ED5D3EDDE
:10942000275AF4EEE45AF1EE10FA07DD93ED2A6ABA
:10943000B4EEE36AF1EE10FA00F18B80D0F8B06080
:10944000B478022C00F3A381E21CD2B2944202D081
:109450000121B2707170D0F8B430AF4D93F898C656
:1094600083F89826A5FB0C61A5FB026464084E08EE
:1094700006EB460504EB4406C5EB0C0C941B5FFAA7
:109480008CF1E5B28D421CBF012183F8D01779E140
:109490004A6840F6B7339A4240F32C81D0F8AC20AA
:1094A0009FED995AD2ED215AF4EEC55AF1EE10FA19
:1094B0006ED59FED966AD2ED220AF4EEC60AF1EE61
:1094C00010FA65DD92ED231AB4EEC51AF1EE10FA2A
:1094D0005ED592ED250AB4EEC60AF1EE10FA57DD1C
:1094E000D2ED241A9FED8A2AF4EEC21AF1EE10FA98
:1094F0004EDDDFED886AF4EEE61AF1EE10FA47D59C
:1095000092ED287AFFEE002AB4EEE27AF1EE10FA3C
:109510003ED592ED263AF7EE003AB4EEE33AF1EE9C
:1095200010FA35DD92ED294AFFEE007AB4EEE74AF3
:10953000F1EE10FA2CD5D2ED274AF4EEE34AF1EE23
:1095400010FA25DD92ED2A5AB4EEE75AF1EE10FA40
:109550001ED5D0F8A83093F82A10D1F1010638BFF3
:10956000002683F82A60D0F8A85095F82A20002A0F
:109570000CBF0624052480F89C4003E1D0F8AC60C1
:10958000032586F8C04086F8C14080F89C50E9E683
:10959000D0F8B06033690325022B35614BDC06EE51
:1095A000103A06F5D631D1ED315ADFED5C0AB8EE4E
:1095B000C61A03F5D64CE1EE205A0CF130045D1CBE
:1095C00006EB8402032DC2ED015A34D000EE105A8E
:1095D00091ED312AF8EEC01A03F5D64CA1EEA02A7F
:1095E0000CF131049D1C06EB8402032D82ED012A4F
:1095F00021D006EE905A91ED317AF8EEE62A03F585
:10960000D64CA2EEA07A0CF1320406EB8402DD1CEB
:1096100082ED017A03EE105A6BB191ED314AF8EE0A
:10962000C33A03F5D643A3EEA04A03F1330106EB98
:10963000810C8CED014AD0F8B430D3F89016012299
:10964000032402297270C3F890464BDC05EE101A11
:1096500003F59066D6ED004ADFED317AF8EEC55A93
:1096600001EB0115E5EEA74A03EB850C4C1C0CF54C
:109670009062032CC2ED004A34D000EE904A96ED81
:10968000001AB8EEE06A04EB0415A6EE271A03EB05
:10969000850C8C1C0CF59062032C82ED001A21D0F5
:1096A00000EE104A96ED002AF8EEC01A04EB0415FD
:1096B000A1EEA72A03EB850C0CF59062CC1C82ED81
:1096C000002A79B106EE904A96ED007AF8EEE62A85
:1096D00004EB0411A2EEA77A03EB810606F5906570
:1096E00085ED007AD3F88826022A4BDD0024C3F8E2
:1096F000884647E090F89C60741E032C00F29F801F
:10970000DFE804F04A9A8947CDCCCC3D6666663FD7
:10971000CDCCCC3E9A99193FABAAAAAACDCC4C3D50
:109720000AD7233CD0F8B060B278022A2DDCA24BD5
:1097300002F1010C83FB0C5404EB4401C1EB0C055A
:10974000EBB29A4202D00122B3707270D0F8B4200A
:109750009A4D92F898C682F89836A5FB0C61A5FB45
:10976000036464084E0806EB460504EB4406C5EBAB
:109770000C0C9C1B5FFA8CF1E5B28D421CBF0121E1
:1097800082F8D01770BCFFF743BBD51ED8E7E21EA6
:109790005BE670BCFFF79ABDD0F8AC309FED880A4D
:1097A0005A891E885C889D88D98800EE902A1A897B
:1097B00001EE106A01EE904A06EE905A07EE101A7A
:1097C00002EE102AF8EE602AB8EE413AF8EE613A5D
:1097D000B8EE664AF8EE477AF8EE424ADE6A22EEC2
:1097E000805A63EE005A23EE806A64EE000A27EE88
:1097F000801A24EE800A022483ED2D5AC6ED025A07
:1098000086ED036AC6ED040A86ED051A86ED060AA2
:1098100080F89C40ABE5D0F8AC50698907EE901A0F
:10982000FBEEC87A01234FF0040CC5ED2E7A85F8C3
:10983000C13080F89CC09AE570BCFFF703BDD0F83A
:10984000B0100A69032A00F0B4805300052BA8BFAA
:10985000012393420B614CDD06EE902A01F5D63CC4
:10986000DCED311A9FED572AB8EEE67A02F5D645BF
:10987000E7EE021A05F13006551C01EB8604AB42F7
:10988000C4ED011A35DD02EE905ADCED313AB8EE46
:10989000E23A02F5D646E3EE023A06F13104961CAE
:1098A00001EB8405B342C5ED013A22DD04EE106AF6
:1098B000DCED314AF8EEC47A02F5D644E7EE824A8E
:1098C00004F13205D61C01EB8504B342C4ED014A14
:1098D0000FDD05EE106A9CED316AF8EEC55A02F50F
:1098E000D642A5EE826A02F1330501EB850C8CEDC0
:1098F000016AD0F8B420D2F890460126A3424E70F7
:10990000C2F890364CDD00EE104A02F59061D1EDC0
:10991000000A9FED2D1AF8EEC01A04EB0415E1EED3
:10992000810A02EB850C651C0CF59066AB42C6ED16
:10993000000A35DD02EE105A91ED007AF8EEC26AA7
:1099400005EB0516A6EE817A02EB860CA51C0CF53C
:109950009066AB4286ED007A22DD02EE905AD1EDA0
:10996000003AB8EEE23A05EB0516E3EE013A02EBF7
:10997000860C03340CF59065A342C5ED003A0FDD6B
:1099800004EE104AD1ED004AF8EEC47A04EB04115B
:10999000E7EE814A02EB810606F5906CCCED004AB9
:1099A000D2F88846A3423FF7EDAE0023C2F88836CE
:1099B000E8E604234DE700BF56555555ABAAAAAAC1
:1099C00000008037CDCC4C3D0AD7233C30B5D0F8D1
:1099D0008820D0F884300446D01A83B0020718BF1C
:1099E0006D4609D123E0D4F88800D4F88420C2EB76
:1099F000000C5FEA0C731AD0D4F8843004EBC30176
:109A000001F1040C9CE8030085E803009DF80020A8
:109A1000581C00F00F03042AC4F88430E3D10199E4
:109A20000029E0D020466946FFF78EFCDBE71B4D9E
:109A300023682968C81AB0F5487F14D994F89C2087
:109A4000072A26D0A2F1050C5FFA8CF1012912D960
:109A50002A681249C3EB020CBCF57A7F01D90B6866
:109A6000236003B030BD94F89C20A2F1050C5FFA8E
:109A70008CF10129ECD82D680848EB1A40F6B83271
:109A80009342EED901682160002584F89C5003B010
:109A900030BD002084F89C00DAE700BF0CC901202B
:109AA0004B1110B501F01F010446052B00F2C680D2
:109AB000DFE803F0111117222A030129D0F8AC00C6
:109AC00000F0B780C0F0A180022925D190F8504065
:109AD0006142C8B210BDD0F8AC0030F81140200A85
:109AE00010BD022900F08C80014491F89030D3F130
:109AF000010038BF002010BDD0F8B0400A1C18BFCC
:109B000001222270002010BD052900F29780DFE8B5
:109B100001F072302C210F0890F860205342D8B227
:109B200010BDFFF7D3FB464B19682160002010BD24
:109B3000D0F8AC00B0F80AC000EE90CAFBEEC80A3C
:109B400001230422C0ED2E0A80F8C130002084F8E1
:109B50009C2010BDD0F8AC100323002081F8C00079
:109B600081F8C10084F89C3010BDFFF76BFB00202A
:109B700010BDD0F8AC009FED331AB0F80AC00288CF
:109B80004188838805EE10CA05EE902AB0F806C019
:109B9000028906EE101A01EE903A02EE10CA04EEA7
:109BA000902AF8EE452AB8EE653AF8EE463AB8EE55
:109BB000614AB8EE427AF8EE647AC36A22EE810A0C
:109BC00063EE010A23EE815A64EE016A67EE015AE0
:109BD00027EE811A022180ED2D0AC3ED020A83EDE2
:109BE000035AC3ED046AC3ED055A83ED061A00203B
:109BF00084F89C1010BD012084F89C00002010BD4A
:109C0000D0F8AC1091F8310010BDD0ED2C6A9FED6A
:109C10000E7ADFED0E7A26EE870AB4EEE70AF1EE51
:109C200010FAD4BF4FF0000C6FF0000C5FFA8CF00C
:109C300010BD90F840004242D0B210BD002010BDCF
:109C40000CC901200000803733335340CDCC4C3F4A
:109C50002DE9F04F05468FB04F480C462946164671
:109C600001F006F809AA05A94B4801F021FA4B4B6F
:109C700093F82A20002A40F0A180002E00F083866D
:109C80004748484BD0ED007AB700790731D4B5F991
:109C900002109FED455ADFED455A9FED456A07EEEC
:109CA000101ABAEEE87AF0EE676AD7EE076A042275
:109CB000F5EEC06AF1EE10FAC8BFF0EE455AE5EED7
:109CC000A67AF4EEC67AF1EE10FA9ABFDFED396AA1
:109CD00067EEA66AF7EE006A26EE870A83ED000AB1
:109CE000354B06E027EEA51A61EE246A0432E3EC58
:109CF000016A05EB0208F0EE672AB8F90290DFED81
:109D00002A4A9FED2A1ADFED2A1A9FED2A4A9FED73
:109D1000263ADFED263A9FED265ADFED265A00EE71
:109D2000909AFAEEE80AB7EE002AD0EEA02A0432A2
:109D300005EB020AF5EEC02AF1EE10FAC8BFB0EE4C
:109D4000641AE1EE227AF4EEE17AF1EE10FA98BFAD
:109D500027EE842ABA4222EE207AA3EC017A00F0A0
:109D60004E82BAF9029004EE909AFAEEE84AF0EECA
:109D7000670AD4EEA40AF5EEC00AF1EE10FAC8BFE5
:109D8000F0EE433AE3EEA07AF4EEC57AF1EE10FA83
:109D9000A8D9B7EE001AA7E7A006002090B70120C7
:109DA00004C9012040060020CDCCCC3D17B7D138E6
:109DB00082A8FB375635024744060020002E00F0EB
:109DC000CE80B5F90210E54A01EE901A4FEA860BF3
:109DD000FAEEE81A0423ABF104075B45E2EC011A42
:109DE000C7F3820000F0BB80002857D0012848D07C
:109DF00002283BD003282FD0042823D0052816D0D2
:109E0000062809D0B5F906E004EE10EABAEEE84AF1
:109E1000082382ED004AD24A05EB030C0433BCF957
:109E2000028002EE108ABAEEE82AA2EC012A05EBC3
:109E3000030A0433BAF9029002EE909AFAEEE82A85
:109E4000E2EC012AE9180433B1F9027006EE107A47
:109E5000BAEEE86AA2EC016AE8180433B0F902E04D
:109E600005EE10EABAEEE85AA2EC015A05EB030C33
:109E70000433BCF9028005EE908AFAEEE85AE2EC6F
:109E8000015A05EB030A0433BAF9029003EE109A63
:109E9000BAEEE83A5B45A2EC013A60D0E818191D29
:109EA000844605EB0108B0F90200B8F90210BCF9CC
:109EB0001690DFEDAC7A03EE900A05EB030AB8F9D1
:109EC000060005EB030800EE101AB8F91A70BCF989
:109ED0000E1000EE900ABCF91200BAF91EC001EE95
:109EE000101A01EE900A06EE909A07EE107A02EE32
:109EF00010CAB8EEE34AF8EEC04AF8EEE02AF8EEEF
:109F0000C15AB8EEE16AB8EEE63AB8EEC70AF8EE22
:109F1000C23A64EE270A964624EEA71A22EEA75A02
:109F200065EEA71A26EE274A63EE276A20EE277A07
:109F3000203363EEA77AEEEC010A5B4582ED011A4D
:109F40008EED015A02F1200242ED051A02ED044A9B
:109F500042ED036A02ED027A42ED017A9ED1824D12
:109F60009DF82620D5ED004AA9689DED0B2A62B127
:109F70009DF827309DF82500002B00F0C2840028B2
:109F800040F0FC848DF8240089006B687648002B33
:109F900040F0AF849DF8247007B141607348744B62
:109FA00002968DE8090009A905AA72486B4B85ED58
:109FB000002A09F095F8002E00F00F816B4F6C4DD0
:109FC0009FED6D3A38462946B0EC010AF1EC013AB2
:109FD00060EE030A23EE831AB6000423BDEEE05AB6
:109FE000FDEEC11AA6F10409B34215EE102A02F3E0
:109FF0000F0211EE90AA0AF30F082280A4F8028043
:10A00000C9F3810200F0E980002A5DD0012A3BD02B
:10A01000022A1DD090ED004A91ED007A64EE036AA9
:10A02000A446FDEEE67A67EE034A17EE901A01F3B6
:10A030000F0EBDEEE42A2CF804EF07F1080005F13D
:10A04000080112EE107A07F30F070823ACF802702C
:10A05000F0EC012AB1EC016ADFED475A22EEA53A95
:10A0600026EE250A04EB030BFDEEC33AFDEEC00A13
:10A0700013EE905A05F30F0210EE909A09F30F07B2
:10A08000E252ABF802700433B0EC011A9FED3A5A79
:10A09000F1EC011A21EE054A61EE856ABDEEC47A43
:10A0A00004EB030917EE10AA0AF30F08FDEEE67A97
:10A0B00024F803800433B34217EE90CA0CF30F0C5C
:10A0C000A9F802C000F0898086468B46BEEC012AC2
:10A0D000FBEC014ADFED282A9EED013AD0ED015A52
:10A0E00091ED016A9BED010AD0ED030AD1ED033A2F
:10A0F00022EE221A64EEA21A23EE225A25EEA22A9A
:10A1000026EE223A60EE226A20EEA27A63EEA27A6E
:10A11000BDEEC14A1A1D03F1080703F10C0504EB5B
:10A12000030904EB020A04EB070804EB050C14EE28
:10A1300010EA0EF30F0BFDEEE14A24F803B0FDEE3A
:10A14000C52A1033FDEEC25ABDEEC36ABDEEE60A63
:10A15000FDEEC70AFDEEE73AB3420FE040060020ED
:10A160004806002000000038F4C6012094C60120F3
:10A17000D4B70120C0BE01200000004714EE90EAD1
:10A180000EF30F0B00F11000A9F802B015EE90EAE3
:10A190000EF30F0B12EE909A09F30F0924F802B098
:10A1A00016EE10EA0EF30F0B10EE102A02F30F0E4C
:10A1B000AAF802B001F1100124F80790A8F802E013
:10A1C00010EE909A09F30F07675313EE905A05F3B8
:10A1D0000F05ACF802507FF477AF9DF824405CB1D6
:10A1E0008C4ED6F8A4008310322BA8BF3223002156
:10A1F000C6F8A030C6F8A4100FB0BDE8F08F864FA7
:10A20000864D17ED010A95ED056AC0ED007AF0EE76
:10A21000C07A77EEC66A771EF5EEC06AF1EE10FAE4
:10A2200005F1740C07F0030E40F39A83D5ED034A51
:10A23000F0EE460AE6EEA40A7848794A95ED061A49
:10A2400070EE816A00F17803C0EE261A07F1FF393B
:10A250004CED011A002F00F0E580BEF1000F00F078
:10A26000AE80BEF1010F3CD0BEF1020F1CD012ED4A
:10A27000014A95ED063AB0EEC42A72EE602A09F161
:10A28000FF39F5EEC02AF1EE10FAD4BF95ED046A5D
:10A2900095ED036AE2EE860A0432043370EE833AE7
:10A2A00084EE235A03ED025A52ED015AD5ED067A97
:10A2B000B0EEE57A37EE600A09F1FF39B5EEC00A73
:10A2C000F1EE10FAD4BF95ED046A95ED036AE0EE65
:10A2D000060A0432043370EEA76AC5EEA64A43EDBF
:10A2E000024A12ED011A4D48F0EEC11A31EEE04A71
:10A2F00009F1FF39B5EEC04AF1EE10FAD4BF95ED81
:10A30000046A95ED036AE4EE060AB9F1FF3F02F133
:10A31000040295ED066A70EE866A03F1040381EE8D
:10A32000262A03ED022A4AD17CE0D5ED034AE6EE67
:10A33000A40A011DABF1030995ED061AD2ED001A2E
:10A34000D2ED013A30EE814AB0EEE16A80EE042AA5
:10A3500000F1080800F10C030C3276EE602A00EDE3
:10A36000012AF5EEC02AF1EE10FAD4BF95ED042AC9
:10A3700095ED032A95ED063A2848E2EE820AB0EE02
:10A38000E30A30EE835A30EE607AC1EE855AB5EEBC
:10A39000C07A41ED015AF1EE10FAD4BFD5ED045A5E
:10A3A000D5ED035AD5ED067AE7EE250AB9F1FF3F60
:10A3B00070EEA76AC3EEA64A48ED014A32D052EDCC
:10A3C000012A95ED065AB2EC010AB0EEE23A73EEBC
:10A3D000603AB0EEC07AF5EEC03AF1EE10FACCBFBA
:10A3E000D5ED036AD5ED046AE3EEA60A09F1FF3B59
:10A3F000181D70EE855A77EE606AC2EEA57AF5EE0A
:10A40000C06AF1EE10FA43ED017A8EDCD5ED044A14
:10A410008DE700BF6407002044060020F4C6012039
:10A4200048060020DFF854A4C0ED050AAAF1840C08
:10A4300090ED0E7AD0ED0D7AD5ED0B1A5CED200A79
:10A4400095ED0C1AE7EE217AAAF5BA7303F1F40B35
:10A45000E1EE470A03F5BC7007F0030E4BED017AFD
:10A4600030EEE74A791EA1EE847A0AED014A002F08
:10A4700000F0A380BEF1000F49D0BEF1010F2DD036
:10A48000BEF1020F16D095ED0B6A5BED202A95ED1B
:10A490000C2AE7EE067A03F1F80B0139E2EE472ABF
:10A4A0004BED017A32EEE73AA6EE037A00ED013A7F
:10A4B00003F5BE70D5ED0B3A95ED0C5A1BED200A55
:10A4C000E7EE237A01390430A5EE470AEBEC017A76
:10A4D00070EE675AA3EEA57A40ED025AD5ED0B4A0D
:10A4E000D5ED0C0A5BED206ADE4BE7EE247A0139EC
:10A4F000B1F1FF3FE0EEC76A00F10400EBEC017A36
:10A5000036EEE71A00ED021AA4EE817A55D0D5EDA9
:10A510000B1A95ED0C4A1BED206AD24BE7EE217A1F
:10A520005A468246A4EE476A0BF10C090439E2EC64
:10A53000017A36EE672A9046A1EE827A0BF1100B73
:10A54000B1F1FF3F00ED012AD5ED0B3AD5ED0C2A14
:10A5500012ED203AE7EE237A00F11000A2EEC73A9E
:10A56000E8EC017A33EE675AA3EE857AAAEC015A39
:10A57000D5ED0B4A95ED0C0A58ED205AE7EE247AFA
:10A58000E0EE475A49ED017A75EEE70AA4EEA07AAB
:10A59000CAED000AD5ED0B1A95ED0C1A59ED206A9B
:10A5A000E7EE217AE1EE476A4BED017A36EEE74AB3
:10A5B00000ED024AA1EE847AA9D1AB49C3ED0D7A30
:10A5C00083ED0E7A95ED076A93ED0A7AD5ED082AA8
:10A5D000D3ED097A91ED002AE7EE067A8C4607F072
:10A5E0000300A2EEC72A07F1FF3E41ED207A32EECA
:10A5F000673AA6EE037AACEC013A002F00F09A809D
:10A60000002844D001282BD0022815D0D5ED073AD8
:10A6100095ED085A9CED000AE7EE237A0EF1FF3E15
:10A62000A5EE470A4CED207A70EE675A01F1080C4E
:10A63000A3EEA57A4CED015AD5ED074AD5ED080AEF
:10A640009CED001AE7EE247A0EF1FF3EA0EEC71A49
:10A650004CED207A71EE676AA4EEA67AECEC016A02
:10A66000D5ED071A95ED084A9CED002AE7EE217A10
:10A670000EF1FF3E1EF10101A4EE472A4CED207AB7
:10A6800072EE672AA1EEA27AECEC012A52D095ED87
:10A69000076A95ED083ADCED003AE7EE067AE34604
:10A6A000AEF1040EE3EE473A0CF10C071EF1010087
:10A6B0004CED207A33EEE75A0CF1100CA6EE057A39
:10A6C000ABEC015AD5ED074A95ED080A5CED035A4B
:10A6D000E7EE247A5B46E0EE475A4BED207A75EEC2
:10A6E000E70AA4EEA07AE3EC010AD5ED071A95ED8E
:10A6F000081ADBED016AE7EE217AE1EE476A43EDE5
:10A70000207A36EEE74A5CED012A0CED024AA1EE12
:10A71000847A95ED076A95ED082AE7EE067AE2EE6F
:10A72000472A47ED207A32EEE73AA6EE037A0CED9F
:10A73000013AACD1DFED4D5A4D4AC5ED097AB0EE84
:10A74000655A85ED0A7A02F110084FF0000C0421D9
:10A7500041FA0CFAF2EC017ADFED444AF6B14FEA25
:10A760008A09C64600209EED007AF0EE673AD7EEE1
:10A77000073A00EB0A0BCE445846F5EEC03AF1EE2C
:10A7800010FAB0EE630ACCBF52ED0A3A52ED073A26
:10A79000E0EE237A5E4574EEA74AE4D800EE90AA74
:10A7A000F1EEE46AB8EEE01A52ED041A42ED017AD5
:10A7B00026EE814A0CF1010C34EE612ABCF1030F44
:10A7C000F0EEC22A32EE226A08F1800875EE845A51
:10A7D00002ED044A35EE065AB9D195ED1B3ADFED8C
:10A7E000257AD5ED7D3A95ED7E7A95ED7C0A1D4F63
:10A7F00075EE434AF0EE476AA4EEA73A33EE631AC9
:10A8000085ED1B3AD1EE016AE1EE003AA0EE267A20
:10A81000F1EEC71AB4EEE11AF1EE10FAC5ED7D3A89
:10A8200085ED7E7A2CDD9FED144AB4EEC41AF1EE6C
:10A8300010FA25DD97ED7F2AD7F80832B4EEE52A25
:10A84000F1EE10FA20D8002B40F08D80B7EE085AB8
:10A8500065EE855AD7F80412C7ED7F5AC7F808127B
:10A8600001271CE0F4C60120E4C70120000000001D
:10A8700054C70120CDCC4C3D0AD7233C68C80120E9
:10A8800095ED7F2AD5F80832D5ED802AA2EE622A0E
:10A8900085ED7F2A13B15A1EC5F8082200279DF8BE
:10A8A00026009DED0B3AD5ED007AA96850B19DF8D0
:10A8B00027309DF82520002B38D0002A5AD18DF85A
:10A8C000247089006B68334A002B42D19DF82470B4
:10A8D00007B151603048314B02968DE8090009A953
:10A8E00005AA2F482F4B85ED003A04F0FFFFFFF734
:10A8F00062BB5A1E4FF0000B42608DF824B0FFF788
:10A900004DBB72EE642ADFED285A6B682148B0EE29
:10A91000E26AB4EEE56AF1EE10FAD4BF0022012239
:10A920008DF82420002B3FF435ABE2E773EE673A55
:10A930009FED1D0A6B68174AB0EEE37AB4EEC07A59
:10A94000F1EE10FAD4BF002001208DF82400002B76
:10A95000BCD0581E4FF0000A50608DF824A0B9E713
:10A96000D5ED044A64E497ED806AA2EE462A87EDAD
:10A970007F2A90E700278DF82470A3E700278DF841
:10A980002470FFF702BB034DD5ED097A95ED0A7AE5
:10A99000D0E600BFF4C6012094C60120D4B7012040
:10A9A0001C08002040060020CDCCCC3E704700BFE4
:10A9B000FEE700BFFEE700BFFEE700BFFEE700BF07
:10A9C000704700BF704700BF704700BF094810B50F
:10A9D000FEF730FA084B187818B1084C21888B061E
:10A9E00000D410BDA2880348D1B2FFF759F8A08067
:10A9F00010BD00BF6407002090B701200010014087
:10AA00002DE9F04F87B003A8012100F0F3FF0220E9
:10AA100001210AF055FF002501244B48049404A9A4
:10AA20008DF815408DF817408DF814508DF816509C
:10AA30000AF074FD454B4649DFF84491DFF844A124
:10AA4000DFF844C1DFF844E14248434F434EC3F8C6
:10AA500018A00022C3F81CC0C3F82CE04FF0804CB3
:10AA60004FF0140EC3F800021961C3F8F0113C480E
:10AA70003C49DFF81CA1C3F820C04FF07C5BC3F851
:10AA800030C0C3F804E2C3F808E05A619A625A621F
:10AA90009A635A631A665A669A665A659A65DA65BF
:10AAA000C3F8F421C3F8F821C3F8FC21DA66C3F82F
:10AAB0000852C3F80CB0DF631F645F649E64DE64F9
:10AAC0001E655D60C3F800A002F0C4F92549DFF8F7
:10AAD000C480484607F044FB234800F0EBFC2348C1
:10AAE000234900F063F8214A1F491D4BCDF800901F
:10AAF0004046FEF789F8214613480AF05BFE411BE9
:10AB000018BF01211B484BF6803201F0D5FC10B96B
:10AB1000072488F89C401748174A182101F0F6FCD2
:10AB200010B9072588F89C501248162101F06AFDDB
:10AB30000D4B187810B1114800F0EAFE03A800F0A0
:10AB400061FF07B0BDE8F08F00040240F4C60120A9
:10AB50000BD7233BCDCC4C3D0E745A3B3EC32E3815
:10AB60001C0800200000001090B70120A006002063
:10AB700094B7012034B80120519C00088CB7012003
:10AB8000C0BE0120CDCCCC3CA792AB3C5177563E09
:10AB900000008A426407002008B5FFF731FF024831
:10ABA000FEF714FFFBE700BF64070020F0B5044682
:10ABB00083B0C162002501F003F804F1300000F019
:10ABC000EBFEC4F8AC50E56625676567A567E567E9
:10ABD000C4F88050C4F88450C4F88850C4F88C502D
:10ABE000C4F89050C4F89450C4F89850C4F89C50DD
:10ABF000C4F8A050C4F8A450C4F8A85004200121FF
:10AC00000AF05EFE002601274FF48073694614485F
:10AC100000938DF804708DF806608DF805608DF84E
:10AC200007600AF07BFC0F4B0F48104965654FF039
:10AC30007C5284F86060656384F84060656484F8E1
:10AC40005060A666C4F8B05084F8C07084F8C16043
:10AC5000E063A163E265E264A365A36403B0F0BDB1
:10AC6000000802400AD7233C6666663FCDCC4C3DC7
:10AC70002DE9F0030231002A00F046810C88A4F18E
:10AC80003306B7B2551EB7F5B56FC5F3C1064FF021
:10AC9000000340F2928004F2DB581FFA88F9B9F5FC
:10ACA000B56F98BF4FF0FF330824A24240F28C806A
:10ACB000002E70D0012E24D0022E10D0B1F820C06A
:10ACC000ACF13307BDB2B5F5B56F40F21B810CF2A4
:10ACD000DB56B7B2B7F5B56F00D8013B083431F891
:10ACE0002480A8F133051FFA85F9B9F5B56F40F254
:10ACF000078108F2DB56B7B2B7F5B56F00D8013B54
:10AD0000083431F824C0ACF133051FFA85F8B8F5E2
:10AD1000B56F40F2F3800CF2DB56B7B2B7F5B56F02
:10AD200000D8013B0834A24235D84DE00133083445
:10AD300031F82480A8F133051FFA85F9B9F5B56F0C
:10AD400000F2CE80013304F1080C31F82C80A8F118
:10AD500033051FFA85F9B9F5B56F40F2BF8008F2E7
:10AD6000DB56B7B2B7F5B56F00D8013B04F1100C54
:10AD700031F82C80A8F133051FFA85F9B9F5B56FC4
:10AD80001DD908F2DB56B7B2B7F5B56F00D8013B55
:10AD90001834A24218D931F82490A9F133051FFACA
:10ADA00085FCBCF5B56FC1D909F2DB56B7B2B7F572
:10ADB000B56F98BF03F1FF33B9E7012374E7183487
:10ADC000A24203F10103E6D805EE903AB8EEE56A37
:10ADD000D50807EE105AB8EE470A90F86560D0ED36
:10ADE000157AD0ED166A90F8607090ED173AC6EEBD
:10ADF000000A002EB7EE001AFFEE001AB0EE672A26
:10AE000008BFF0EE411A91EEA02AE6EE827AC0ED7C
:10AE1000157A002F6DD19FED3E4A74EE034AF4EE91
:10AE2000E47AF1EE10FAB4BF0023012380F8603019
:10AE3000002B50D0002A4ED092000423101F4FF058
:10AE4000000C9342C0F38204A1F800C043D034B395
:10AE5000012C1FD0022C1AD0032C13D0042C0CD0A0
:10AE6000052C07D0062C02D000258D800823002653
:10AE7000CE5204330027CF5204334FF0000821F89C
:10AE8000038004334FF0000921F8039004330020BD
:10AE9000C85204330024CC52043393421BD0002008
:10AEA000C8521C1D03F1080903F10C0803F1100C32
:10AEB00003F1140703F1180603F11C052033934234
:10AEC000085321F8090021F8080021F80C00C853A4
:10AED00088534853E3D1BDE8F0037047013345E799
:10AEE00008F2DB56B7B2B7F5B56F3FF62CAF013BB2
:10AEF00029E7DFED083A23EE234A8EE7013311E715
:10AF00000133FDE60133E9E69FED016A60E700BF2A
:10AF100000000000CDCC4CBD70B5044604215C4857
:10AF200094F864500AF046FCD0F1010038BF0020CC
:10AF3000D4ED0D7AD4ED0E6A94F84030D4ED0F0ABA
:10AF4000A8420CBFB7EE007ABFEE007A37EE670A70
:10AF5000E6EE807AC4ED0D7A002B40F08980DFEDBB
:10AF60004D1A6289E66A9FED4C3AD6ED073A02EE39
:10AF7000902AB8EE624A31EEA02AD4EE033A94F851
:10AF80006420F4EEC27AF1EE10FAFEEE005AB4BF7D
:10AF900000210121FFEE004A002AB7EE005AF4EE2C
:10AFA000E53A0CBFB0EE456AB0EE646AF1EE10FA15
:10AFB00084F8401022DDF6EE007AF4EEE73AF1EE86
:10AFC00010FA1BD594ED110AD4ED121A94F8500022
:10AFD00094ED131AF5EEC03AF1EE10FAB0EE402AF5
:10AFE00048BFB0EE645A96EE052AA1EE820A84EDBF
:10AFF000110A002843D1DFED273A14E094ED110A3D
:10B000009FED247AD4ED120A94F85050F0EE406A85
:10B01000D6EE076AA0EEA60A84ED110A6DBB94ED88
:10B02000131AF0EE473A1D491D4E08681D4B94F85F
:10B03000C05084F8652033EE814A06FB00FEB4EE72
:10B04000C40A7344F1EE10FAB4BF4FF0000C4FF095
:10B05000010CDA0F84F850C00B6084F864200DB93D
:10B0600094F8C120104C7AB94FF48071618370BD9F
:10B070009FED0E1A60EE811A73E794ED131A9FED9F
:10B080000B3A61EE033ACEE74FF48076268370BD2B
:10B090000000024000000000000080372006002071
:10B0A0000D6619005FF36E3C00080240CDCC4CBD2C
:10B0B0002DE9F041D0F82CE0E84B04462DED028B51
:10B0C00090460EF108066C3000255AE0022A14D191
:10B0D000B6EE000A75EE400AF1EE007A60EEA06A64
:10B0E0009FEDDF6A26EEA71AF5EEC00A61EE011A9F
:10B0F000F1EE10FA21EE865A64D4D0ED005A93EDA9
:10B10000018A75EE658A0235E8EE285A08335A78C6
:10B11000E0EC015A675B05EE107A06F1040CBBEE19
:10B12000C85A1AB196ED017A37EE455A1E78012EAB
:10B130004BD0022E14D1B6EE000A75EE400AF1EEA5
:10B14000007A60EEA06A9FEDC66A26EEA71AF5EEB9
:10B15000C00A61EE011AF1EE10FA21EE865A47D4C8
:10B16000D0ED005A93ED018A75EE658A0235E8EE5E
:10B17000285A202D0CF1040603F10803E0EC015AD3
:10B1800039D0625B5F7805EE102ABBEEC85A1FB15A
:10B1900096ED007A37EE455A1A78012A96D1B6EE26
:10B1A000002A75EE422AB1EE003A62EEA23A9FED15
:10B1B000AC4A63EE834AF5EEC02AF1EE10FA24EEB3
:10B1C000845A9AD5B1EE455A97E7B6EE002A75EE45
:10B1D000422AB1EE003A62EEA23A9FEDA14A63EE36
:10B1E000834AF5EEC02AF1EE10FA24EE845AB7D560
:10B1F000B1EE455AB4E794ED1C7A94ED270AD4EDEC
:10B20000220AE0EE070AF5EEC00AF1EE10FA00F1AC
:10B2100041819FED941AF4EE410AF1EE10FAD8BF85
:10B22000B0EE601AD4ED1D6A94ED286AD4ED237A4D
:10B2300081ED001AE6EE267AF5EEC07AF1EE10FA0C
:10B2400000F13181F7EE001AF4EE617AF1EE10FAB6
:10B25000D8BFF0EE671A94ED1E2AD4ED292A94ED9A
:10B26000243AC1ED011AA2EE823AB5EEC03AF1EEEF
:10B2700010FA00F11581F7EE003AB4EE633AF1EE00
:10B2800010FAD8BFF0EE433A94ED1F4AD4ED2A4AA3
:10B2900094ED255AC1ED023AA4EE845AB5EEC05A97
:10B2A000F1EE10FA00F1F980F7EE005AB4EE655AAB
:10B2B000F1EE10FACCBFB0EE658AB0EE458AD4ED5F
:10B2C0001B8A9FED690A94ED2C7ADFED680AD4EDB4
:10B2D000267ADFED671A81ED038A28EE801A71EE77
:10B2E000476AB0EEE66AB4EEE06AF1EE10FABEBF6D
:10B2F0009FED601AA6EE817AB0EE471A21EE272A5A
:10B3000084ED2C1AB4EEE12AF1EE10FA40F19A80A5
:10B31000C8ED031A94ED213ADFED573A94ED2B4A2C
:10B32000DFED568A9FED560ADEED000A9EED015ACA
:10B33000D4ED204A23EE238AB6EE001A78EE445A62
:10B34000E4EE850A2046F5EEC05AF1EE10FAC8BFC9
:10B35000B0EE680A30EE087AF2EE086A37EE016A5B
:10B36000FDEEC67AF8EEE71A31EEA62AC4ED2B1AE6
:10B3700088ED012AC8ED020AFFF7CEFD94F83120CE
:10B3800094F8401094F8507094F8600088F8010028
:10B3900088F8021088F803701AB194F830E08EF043
:10B3A000010288F8002047B1F2EE082A38EE223A6E
:10B3B000002588ED013AC8F808506688E36ADFED99
:10B3C000318A93ED030AD4ED270AD4ED224AD4ED55
:10B3D0002F5A9FED2D8A9FED2D1A03EE906AB8EE3D
:10B3E000634AB2EE045AA4EE680AF8EEE56AE0EEAB
:10B3F000804AB6EE007A24EE856A76EE667AF5EE3D
:10B40000C07AF1EE10FAC8BFB0EE481A71EE061A13
:10B4100031EE872AFDEEC22A12EE901A002945DB92
:10B420000A29C8BF0A21C4F8BC102046C8F8101069
:10B4300000F084FBBDEC028B04F13000BDE8F0416C
:10B4400000F0C8BADFED082AB4EEE22AF1EE10FAF5
:10B45000C8BFB0EE622A88ED032A5BE70000002037
:10B46000333353403BDF7F3F00004042CDCC4C3F65
:10B47000000040C20AD7A33C000070429A9999BECE
:10B480009A99993E00008037CDCCCCBDCDCCCC3D37
:10B49000000000001FED021AC4E61FED038A0EE74C
:10B4A0005FED053AF0E65FED061AD4E60021C4F838
:10B4B000BC10BAE72DE9F84F8046002308F8043B9A
:10B4C000B24E814600F140074FF0FF0CB2464546B0
:10B4D00006F1300B54460FCC5C4528606960AA60C9
:10B4E000EB60A24605F11005F4D1BAE80700434627
:10B4F00028606960AA6013F8012B6FEA08013944DB
:10B50000BB4201F007004AD048B3012821D00228ED
:10B510001BD0032815D004280FD0052809D00628F1
:10B5200003D013F801BB5A4492B213F8014B2244E2
:10B5300092B213F801AB524492B213F8015B2A4461
:10B5400092B213F8011B0A4492B213F8010B0244A1
:10B5500092B213F801BB5A44BB4292B21FD01C46B0
:10B560009D7814F801ABD87894F800B01C7959791B
:10B5700052441BFA82F215FA82F510FA85FA083362
:10B5800013F8020C14FA8AF411FA84FB13F8011C64
:10B5900010FA8BF211FA82F5BB42AAB2DFD1D04386
:10B5A000B38FF48F81B28B4200F0B680784A403E70
:10B5B00096420CF1FF3C89D1764B7748774DC9F81C
:10B5C00004504FF0000A4FF07D5E0124C9F80800D6
:10B5D000C9F80C30C9F81030C9F81430C9F818305F
:10B5E000C9F81C30C9F820E0A9F840A089F829A0C2
:10B5F00089F82AA089F8284089F8004009F072FBF0
:10B60000F32009F07FFBB9F84010654E654D4FEA15
:10B61000811B5E44AE4200F2A980002900F0A880A0
:10B62000614D624E0BF100625D445E4402F5804064
:10B63000044600F13C0BC0EB080A20465AF80410FF
:10B64000043409F0D5FB5C45F7D143466FEA08089E
:10B6500013F8012BB844BB4208F007014CD049B3A2
:10B66000012921D002291BD0032915D004290FD08C
:10B67000052909D0062903D013F801CB624492B200
:10B6800013F801EB724492B213F8010B024492B228
:10B6900013F801BB5A4492B213F801AB524492B270
:10B6A00013F8014B224492B213F8018B4244BB427F
:10B6B00092B221D0194693F802C011F801BB93F859
:10B6C00003E091F800A01C79587993F806805A4459
:10B6D0001AFA82F21CFA82F11EFA81FC083314FA7B
:10B6E0008CF410FA84FB13F8010C18FA8BF210FAA0
:10B6F00082F1BB428AB2DDD1D743B9B2304609F0FC
:10B7000097FB2846B9F8401009F092FBB9F8403091
:10B710005D1CA9F8405006E064457FF447AF0CF18A
:10B720000106A9F84060D9ED087A9FED217AF4EE80
:10B73000C77AF1EE10FA06D49FED1E0AF4EEC07A35
:10B74000F1EE10FA03DD4FF07D54C9F8204099F86E
:10B750002800A8B9012289F8282099F8291005297C
:10B7600084BF052189F82910BDE8F88FA9F840A009
:10B770000820022109F000FB0C4E0B4D0E4857E744
:10B78000042884BF042089F82800E6E7C07F000869
:10B79000C03F0008AE47013F1F85A8C20A57854237
:10B7A00040400008FF7F00083E4000083C40000881
:10B7B0003333333FCDCC4C3F004000082DE9F047F8
:10B7C000074609F08FFAF32009F09CFAB7F8401009
:10B7D0004A4B4B488A011344834207F1040A7FD93C
:10B7E0000024A7F840400820022109F0C5FADFF83C
:10B7F0001881DFF81891434D2C4605F13C06C5EB46
:10B800000A0520462959043409F0F2FAB442F8D165
:10B81000534607F1400013F8012B6FEA0A0C8444E9
:10B8200083420CF007014AD049B3012921D00229F3
:10B830001BD0032915D004290FD0052909D00629CA
:10B8400003D013F801EB724492B213F801AB5244E7
:10B8500092B213F8016B324492B213F8015B2A449E
:10B8600092B213F8014B224492B213F801CB624416
:10B8700092B213F8011B0A44834292B21FD01D46B4
:10B8800093F802E015F801ABDE7895F800C01D7959
:10B8900059799C7952441CFA82F21EFA82FE0833CE
:10B8A00016FA8EF615FA86F511FA85FA13F801CC18
:10B8B00014FA8AF11CFA81F48342A2B2DFD1D34395
:10B8C00099B2404609F0B4FA4846B7F8401009F07A
:10B8D000AFFAB7F84000421CA7F84020BDE8F08757
:10B8E000002980D0DFF82490DFF81C8002F1006688
:10B8F0009144904406F580457EE700BF4040000833
:10B90000FF7F0008004000083C4000083E4000085F
:10B9100070B5102086B0012109F0EEFF1C4D1D4EC0
:10B920000120014609F0CCFF0024022328464FF4F1
:10B93000C06269468DF805308DF8043000928DF8AC
:10B9400006408DF8074009F0E9FD28460921072245
:10B9500009F03EFF28460A21072209F039FF4FF47B
:10B9600016550C22304602A9ADF81220ADF80C4055
:10B97000ADF80E40ADF81040ADF81440029509F056
:10B98000FFFF304601210AF067F806B070BD00BF26
:10B99000000002400010014030B50546012083B090
:10B9A000014609F08DFF002404220123084800927B
:10B9B00069468DF804408DF806408DF807408DF8F3
:10B9C000053009F0ABFD6C702C7003B030BD00BFCA
:10B9D00000000240437810B5042104460370044877
:10B9E00009F0E8FED0F1010038BF0020607010BD02
:10B9F0000000024001B970474FF000604FF4004171
:10BA000009F036BA074B0848084A10B4F0245A60C7
:10BA1000002180F82340072299605DF8044B1A60EA
:10BA2000704700BF10E000E000ED00E03F90020032
:10BA300030B5012183B00546042009F041FF002400
:10BA400041F6014201230948009269468DF804300D
:10BA50008DF806408DF805408DF8074009F05EFD31
:10BA6000EC706C70AC702C7003B030BD00080240FC
:10BA700038B50D4D027804464FF48051284609F040
:10BA8000A1FE2846A2784FF4006109F09BFE2846EB
:10BA90006278012109F096FE2846E2784FF4806131
:10BAA000BDE8384009F08EBE0008024010B5012103
:10BAB00082B00446022009F003FF4FF440710023D6
:10BAC0000122009109488DF8043069468DF806304E
:10BAD0008DF805308DF8072009F020FD2046FF2461
:10BAE00000F8014B047002B010BD00BF000402401A
:10BAF00070B5104B0678104D82B00446186801905E
:10BB00007200BDF804102846D6B209F053FE94F82E
:10BB100001C0BDF8061040EA0603237028464FEA2C
:10BB20004C0509F047FEEEB240EA0601617002B032
:10BB300070BD00BF346901080004024038B50446F6
:10BB40001B480AF03DF894F828303BB3206A1949A5
:10BB5000194BCD6C00F10802411C0729C8BF002118
:10BB600024F812505D5C606221621448802105F067
:10BB7000010209F027FE05F002021048402109F0F9
:10BB800021FE05F004020D48202109F01BFE94F867
:10BB9000280080F0010284F8282038BD05480AF00A
:10BBA0000FF894F8280080F0010284F8282038BDAE
:10BBB00000200140002101408000002000040240DC
:10BBC0002DE9F04F01219DB007464FF4800009F0A8
:10BBD00077FE0120014609F073FE0220012109F0E1
:10BBE0006FFE0420012109F06BFE4FF480700121EB
:10BBF00009F082FE4FF400700121002409F07CFE60
:10BC00004FF0030AF323DFF8AC816648019301A9E2
:10BC10008DF80B408DF808A009F080FC0E2201A9D8
:10BC2000614801920125E0268DF80B408DF808A0AF
:10BC300009F074FC01A9404601968DF80A408DF880
:10BC400009408DF80B408DF8085009F067FC40461C
:10BC5000314609F0B5FDA8F563414FF4806C4FF40F
:10BC600000534FF400324FF008094FF4006BA1F17C
:10BC7000B4084E48CDF84CC00DA94FF4807615930A
:10BC80001792CDF8388016960D94494E0F97109460
:10BC90001294189419951A941B94CDF84490CDF8E9
:10BCA00050B009F087F92946404809F0BFF94FF430
:10BCB000403103A808F1B408049103940594069454
:10BCC00009F008FF304607A907948DF820508DF839
:10BCD00021400A940994CDF82CB08DF8309009F0E9
:10BCE000CBFE07A94046CDF82CB007948DF8204034
:10BCF0008DF821400A9409948DF8305009F0BCFE6B
:10BD000030462A460421072309F006FF3046062163
:10BD10000222072309F000FF30462146524607233E
:10BD200009F0FAFE304605210422072309F0F4FE4B
:10BD3000072130460B46052209F0EEFE3046294623
:10BD40000622072309F0E8FE0722304613460D219C
:10BD500009F0E2FE30464A460C21072309F0DCFEDA
:10BD60002A46072340460B2109F0D6FE30462946D5
:10BD700009F036FF3046294609F0C4FE4046294600
:10BD800009F0C0FE3046294609F020FF072038623E
:10BD90007C6287F828403846FFF7D0FE1DB0BDE82A
:10BDA000F08F00BF00000240000802401064024013
:10BDB00000200140000402402DE9F0412A4C2B4FA5
:10BDC00082B00620012109F07BFD02254FF440637B
:10BDD0000026204669464FF0010800938DF8045074
:10BDE0008DF805508DF806808DF8076009F096FBF8
:10BDF00020460A21042209F0EBFC20460B210422F4
:10BE000009F0E6FC4FF470422046694600928DF836
:10BE100004508DF805508DF806608DF807604025B8
:10BE200009F07CFB69463846009509F077FB20460F
:10BE30000C21052209F0CCFC20460D21052209F039
:10BE4000C7FC20460F21052209F0C2FC20460E2126
:10BE5000052209F0BDFC38460621052209F0B8FC90
:10BE6000404602B0BDE8F0810004024000080240F4
:10BE7000F0B5154C85B001214FF4800009F02EFD7E
:10BE8000204609F033FA04A9104B41F8103D4FF455
:10BE900080624FF4804C2046694600274BF6FF76BF
:10BEA0003325ADF80A20ADF80CC0ADF80470ADF83C
:10BEB0000660ADF8085009F04FFA2046012109F05C
:10BEC000C5FA012005B0F0BD00580040A086010071
:10BED00070B5002084B014460E4609F0EBFC00203B
:10BEE00009F098FC4BF680339C420CD04AF6444053
:10BEF000844261D0B4F5FA4F64D035498C4255D0B4
:10BF0000002004B070BD4FF48170032109F078FC6B
:10BF1000012009F07FFC3B2009F018FD4FF480550B
:10BF200010BB3B2009F012FDF0B93B2009F00EFDDB
:10BF3000D0B93B2009F00AFDB0B93B2009F006FD5D
:10BF400090B93B2009F002FD70B93B2009F0FEFCDE
:10BF500050B93B2009F0FAFC30B93B2009F0F6FC5F
:10BF600010B9083DDDD1CBE74FF48040012109F045
:10BF7000B5FC184809F086F800220294ADF80220BA
:10BF8000ADF80420ADF80C200EB14FF400766946F0
:10BF90001048ADF80060ADF8066009F0DBF86946BE
:10BFA0000D4809F06DF9012004B070BD40F2891010
:10BFB000042109F025FCABE740F20F10062109F03F
:10BFC0001FFCA5E74FF4D570042109F019FC9FE789
:10BFD00000770100003800400034004070B573481D
:10BFE0000E464FF40031154609F07AFA4FF49614D4
:10BFF00098B34FF400316D4809F072FA4FF40031F4
:10C0000058B36A4809F06CFA4FF4003128B3674816
:10C0100009F066FA4FF40031F8B1644809F060FAAB
:10C020004FF40031C8B1614809F05AFA4FF40031B9
:10C0300098B15E4809F054FA4FF4003168B15B489A
:10C0400009F04EFA4FF4003138B1584809F048FA77
:10C0500018B1083CCDD1002070BD5448012109F031
:10C0600005FA5248524909F02DFA4FF4805450BB5A
:10C070004F494E4809F026FA4D4920BB4B4809F07C
:10C0800021FA4B49F8B9494809F01CFA4849D0B996
:10C09000464809F017FA4649A8B9444809F012FA87
:10C0A000434980B9414809F00DFA414958B93F4820
:10C0B00009F008FA3E4930B93C4809F003FA10B9D2
:10C0C000083CD5D1C7E739483421002209F0EEF900
:10C0D0003648384909F0F6F94FF4805450BB3549D9
:10C0E000324809F0EFF9334920BB304809F0EAF94A
:10C0F0003049F8B92D4809F0E5F92E49D0B92B4857
:10C1000009F0E0F92B49A8B9284809F0DBF92949D9
:10C1100080B9264809F0D6F9264958B9234809F0CC
:10C12000D1F9244930B9214809F0CCF910B9083CBB
:10C13000D5D190E7C5F3002141EA4600C1B21B48C2
:10C1400009F0BEF919481C4909F0BCF94FF48054B4
:10C15000002833D11849154809F0B4F9164968BBCD
:10C16000124809F0AFF9144940BB104809F0AAF988
:10C17000114918BB0D4809F0A5F90F49F0B90B4852
:10C1800009F0A0F90C49C8B9084809F09BF90A4917
:10C19000A0B9064809F096F9074978B9034809F0AB
:10C1A00091F958B9083CD5D155E700BF0058004077
:10C1B000010003008200070080000700E9B2364852
:10C1C00009F07EF93448354909F07CF94FF480567E
:10C1D00050BB3249304809F075F9304920BB2E4830
:10C1E00009F070F92D49F8B92B4809F06BF92B4982
:10C1F000D0B9294809F066F92849A8B9264809F0B4
:10C2000061F9264980B9244809F05CF9234958B9F5
:10C21000214809F057F9214930B91F4809F052F96E
:10C2200010B9083ED5D116E71B481D4909F058F949
:10C230004FF4961450BB1A49174809F051F91849A0
:10C2400020BB154809F04CF91549F8B9124809F016
:10C2500047F91349D0B9104809F042F91049A8B973
:10C260000D4809F03DF90E4980B90B4809F038F93D
:10C270000B4958B9084809F033F9094930B906485B
:10C2800009F02EF910B9083CD5D1E4E602480121A5
:10C2900009F0FCF8012070BD005800408000070044
:10C2A0000400001070B50C4616460F21002205460A
:10C2B000FFF794FE00283BD0284600211722FFF705
:10C2C0008DFE002834D0284601211722FFF786FE74
:10C2D00070B3284602210022FFF780FE40B32846B3
:10C2E00003210022FFF77AFE10B328460421122210
:10C2F000FFF774FEE0B1002228460521FFF76EFE2D
:10C30000002C14BF62224222D0B128460621FFF73A
:10C3100065FE002C0CBF42220222B8B9E4B14AF6F5
:10C3200044439E420CBF2022002218BB002070BD57
:10C33000002C4FF0000014BF622242220028E4D1FA
:10C34000002C0CBF422202220028E7D028460721F9
:10C35000FFF744FE002CE2D1B6F5FA4F19D01ADDF2
:10C360004AF64442964212D00E498E4218D11C22FF
:10C370000028DBD028460821FFF730FE0028D5D062
:10C38000284609210022BDE87040FFF727BE202281
:10C39000CBE71822C9E7B6F5FA5F01D10C22C4E752
:10C3A0000022C2E7007701002DE9F04F3B4F3C4EE1
:10C3B000044683B001214FF4001009F081FA384699
:10C3C000002108F033FE384608F05CFD354BA361D0
:10C3D00000254FF480634FF6FE724FF4006B4FF46C
:10C3E000005A4FF480794FF400384021E3626262D2
:10C3F00021626561E561A56225646564A564E56403
:10C40000C4F830B0C4F834A0C4F83890C4F83C8004
:10C41000384604F114010093019208F0CBFD29463F
:10C42000304608F003FE304608F02CFD1E4F0199FF
:10C43000009AA5654FF0C060E56521666566A26655
:10C44000C4F86CB0C4F870A0C4F87490C4F87880D4
:10C45000E567C4F88050C4F88450C4F8885020655B
:10C46000676504F15001304608F0A4FD30460F4ED8
:10C47000182101224FF4804408F0E2FD0C4834609A
:10C480000221012208F026FF01210A46094808F08E
:10C4900021FF012003B0BDE8F08F00BF70600240B3
:10C4A000586002400C3800400C34004000E100E0CD
:10C4B000003800400034004070B5134B0446154668
:10C4C000002245601860026121700E46FFF774FC7F
:10C4D00008B9002070BD2046FFF7CAFC0028F8D03C
:10C4E000204631462A46FFF7F3FC0028F1D03146BA
:10C4F0002A462046FFF7D6FE0028EAD02046BDE8AF
:10C500007040FFF751BF00BF08C90120F8B50E46C3
:10C510001746092101220446FFF760FD0546002861
:10C520003DD0182E53D82378002B3AD02F482761BE
:10C53000818B4A0552D52E48828B53054AD52078E7
:10C5400004F18C0704F56373E761A36568B960685B
:10C550004BF6803C604545D0264A904244D0B0F529
:10C56000FA4F0CBF0321012100E00121B70001FBBC
:10C5700007F363622366E1601F48A66004F11401BB
:10C5800008F018FD04F150011C4808F013FD1A488A
:10C59000012108F04BFD1948012108F047FD28460C
:10C5A000F8BD17484FF4805109F004F90028F8D17C
:10C5B00013484FF4805109F0FDF80028B6D1104817
:10C5C0004FF4805109F0F6F80028F1D0AEE70025CD
:10C5D0002846F8BD012108F043FEB0E7012108F02C
:10C5E0003FFEA8E70221C1E70421BFE70038004071
:10C5F0000034004000770100706002405860024043
:10C600000004024038B58CB2224600210546FFF7EF
:10C61000E5FC00B938BD284622460121BDE8384076
:10C62000FFF7DCBCD0F810C02DE9F0410646BCF1A4
:10C63000000F00F00A818268C56805FB02F77800E8
:10C6400001FB00F101F5E27306EB430806EB410440
:10C6500004F18C0708F10400002D6FD0510001296E
:10C660006CD96D0008F1020E0EEB820E441908F130
:10C670000603C0EB0E01B4F80080A0F80280023976
:10C680007345C1F342012C4458D069B3012924D029
:10C6900002291ED0032917D0042911D005290AD058
:10C6A000062904D0B4F8008023F8028F2C44218896
:10C6B00023F8021F2C44B4F8008023F8028F2C4486
:10C6C000218823F8021F2C44B4F8008023F8028F3D
:10C6D0002C44218823F8021F2C44B4F8008023F84E
:10C6E000028F73452C4429D01946B4F8008021F8F4
:10C6F000028F34F8058021F8028F04EB050834F826
:10C7000015404C8038F815101981A84408EB050134
:10C7100038F815405C8131F81580A3F80C80294465
:10C720004C1931F81510D98134F81580A3F8108010
:10C73000103304EB450473452C44D5D13946E0470A
:10C74000F268002A00F08380B068450007EB8003A0
:10C750004FEA420E6E1E0EFB067706F1FF3C33F8E1
:10C76000024D3C806046CEEB07020CF0070100282A
:10C770006FD0C9B3012930D0022927D003291ED098
:10C78000042916D005290ED0062906D033F8025DFB
:10C7900015800CF1FF30CEEB020233F8026D1680EB
:10C7A0000138CEEB020233F8027D17800138CEEB60
:10C7B000020233F8024D14800138CEEB020233F846
:10C7C000028DA2F800800138CEEB020233F802CDD0
:10C7D000A2F800C00138CEEB020233F8021D11802E
:10C7E0000138CEEB020236D01F46CEEB020537F8F9
:10C7F000026D16803C46CEEB050834F8021D2980F8
:10C8000034F802CCA8F800C0CEEB080233F8087C5C
:10C810001780CEEB020533F80A6C2E80CEEB0504B0
:10C8200033F80C8CA4F80080CEEB040C33F80E1C0B
:10C83000ACF80010CEEB0C0233F8107C17800838EF
:10C84000CEEB0202A3F11003CED1BDE8F081BDE82A
:10C85000F081BDE8F081BDE8F08100BF08B50F4B65
:10C860001A6812F0C05F0FD10C4B1A6812F0A05F6B
:10C8700000D108BD0A484FF0A0519960006800211E
:10C88000BDE80840FFF7CEBE05484FF0C0519960A3
:10C8900000680121FFF7C6FEE6E700BF0060024026
:10C8A00008C901202DE9F00F00F1240200F12C034A
:10C8B0004FF0400C1746354E354D364C42F8086C5B
:10C8C00042F8045C47F8144B0021BCF1080C1960D5
:10C8D00043F8041C02F1A00247F8086C47F8045C16
:10C8E00003F1A00342F88C4C43F88C1C43F8901CD5
:10C8F00042F8806C42F87C5C42F8784C43F8781C33
:10C9000043F87C1C42F86C6C42F8685C42F8644C5A
:10C9100043F8641C43F8681C42F8586C42F8545CB5
:10C9200042F8504C43F8501C43F8541C42F8446CF5
:10C9300042F8405C42F83C4C43F83C1C43F8401C35
:10C9400042F8306C42F82C5C42F8284C43F8281C22
:10C9500043F82C1C42F81C6C42F8185C42F8144C4A
:10C9600043F8141C43F8181CA4D10B4E0B4D0C4C6F
:10C9700006604FF07A574FF07C5140224561C46009
:10C98000476081608261BDE8F00F704722BA003DC8
:10C990000AD7233CCAAA7F3FC92F963B9A99993E52
:10C9A00077BE7F3F90ED017AD0ED053ADFEDB76AB3
:10C9B0009FEDB75AB749D0ED025AB74A9FEDB71A63
:10C9C00090ED004ADFEDB67ADFEDB61A9FEDB62A9C
:10C9D000F7EE004A74EEC72A23EEA60A62EEA20A18
:10C9E000BDEEC06A20EEA03A67EE266A63EE433AD7
:10C9F00030B416EE105AB0EE643AA3EE853AAB00AE
:10CA000003EB010CF8EEC60ABDEEE66A9CED005A97
:10CA1000DCED012A846916EE105A63EE255A70EE99
:10CA2000600A72EEC52AAB0003EB020CF0EE003A8E
:10CA3000A0EEA25A402CA8BF4024E10733EEE50A3D
:10CA400033EEC73AF8EEC60ADCED012A9CED006A27
:10CA500060EE255A72EEC63A27EE037A76EEE06A69
:10CA600000F12403E5EE817A4FF0010C4FF0000055
:10CA7000A6EEA36A27EE211A25EE025AF0EE443AFA
:10CA800040F1D48084424FDDDFED881AB4EEE14AF4
:10CA9000F1EE10FAB0EE442A80F2F08024EE040A9F
:10CAA0009FED833ADFED830ADFED832AE0EE030A90
:10CAB0006046E0EE202A64EE226A66EEA63AB7EE01
:10CAC000007AF0EE475AE2EE055A4FF0020C0CF1F4
:10CAD000FF31B0EE472A87EE250A143343ED076A8B
:10CAE000A0EE262AF7EE006A72EE230A76EEE73A07
:10CAF000C7EE202AB5EEC06AE3EE817AF1EE10FAB5
:10CB000043ED052A54BFDFED6D2ADFED6D2A03EDFD
:10CB1000060A8C4274EE864A74EE043A26EE226AC5
:10CB200025EE275A00F3878030BC704767EE071A5E
:10CB30009FED5F0A9FED5F2A9FED5F3AA1EE802A8D
:10CB40006046A1EE823A67EE032A62EEA20AF7EE91
:10CB5000006AF0EE665AE7EE055A0CF1010514334F
:10CB6000B0EE662A86EEA50A43ED072AA0EE222A39
:10CB7000F7EE002A32EE207A74EE864AC6EE870A75
:10CB800073EE843A72EEE76AB5EEC06AE6EE817A39
:10CB900063EEA41ADFED455A03ED060AF1EE10FA32
:10CBA0004CBF9FED470A9FED450A43ED050AF4EEA1
:10CBB000E51AF1EE10FA26EE006A25EE275A4BDB55
:10CBC000DFED402ADFED400AF0EE651AB7EE000A0D
:10CBD000F0EE406AE1EE856A05F1010C1433F0EEE7
:10CBE000405A80EE263A43ED070AE3EE205AB5EEAE
:10CBF000C06A35EEA27AF7EE002AC0EE070A32EEDE
:10CC0000E70AF1EE10FAE0EE017A43ED050A54BFAF
:10CC1000DFED2A0ADFED2A0A03ED063A74EE864AB2
:10CC200073EE843A26EE206A25EE275A0CF1FF3186
:10CC30008C427FF779AF23EEA47ADFED1C5AB4EE75
:10CC4000E57AF1EE10FAFFF671AFB0EE657ADFED3E
:10CC50001D0ADFED1D2A7AE721EEA10A9FED142AB5
:10CC60009FED143A9FED147AA0EE023A2846A0EE0A
:10CC7000037A61EE870A60EEA02AA7E7B0EE612A88
:10CC8000DFED103ADFED106A19E700BF00008043C6
:10CC9000CDCC4C3E547301084C6D01089A99593F14
:10CCA0009A99193ECDCCCC3D0000FA4348E1FA3EBA
:10CCB00049265F428FBA2141DB0F494048E17A3F64
:10CCC0007B146E3FB8399441F4BD89402DE9F0479B
:10CCD0002DED048B0C9C82460F4690469946FFF73B
:10CCE00061FE9AED048ADAED038A00EE904A38EE8E
:10CCF000C80AF8EE607A661EC0EE279A002C00F093
:10CD00009B8038EE298AB5EE001A78EE411AF5EECE
:10CD1000C01AF1EE10FA00F19580B6EE007AF4EE4A
:10CD2000C71AF1EE10FAC6BF71EEC71AB3EE002AA9
:10CD3000BBEE002AF0EE006AF7EE002AE1EEE62AEA
:10CD4000002822EE212AB7EC013A22EE222ADFED5A
:10CD5000402AF5EE005AF4EE003A62EE258A23EE00
:10CD6000231AF0EE621A5FDD0AF14001B6EE005AB6
:10CD7000002551ED016A51ED035A11ED066A11EDDE
:10CD8000083A51ED047A11ED097AD1ED004A11ED1E
:10CD9000054A51ED020A11ED070AF0EE413AE5EEBF
:10CDA000E63A0235A842B0EE419AA3EE469AF0EE7A
:10CDB000635AE6EEE75AB0EE493AA6EE473A75EE08
:10CDC000E43A33EE449A63EEA05A29EE000AE7EE05
:10CDD000A56AA7EE006AE7EEA64AA7EE064AD2EEDB
:10CDE000058AE7EEA64AF0EE460AA7EE064AE7EE07
:10CDF000000AB0EE667AA7EEA57AF6EE007A35EE76
:10CE0000279A78EEA73A14EE903A01ED054A41EDE3
:10CE1000060A01ED017AE9EE061A41F8283B92EE86
:10CE2000285AE3EEA62AA4DC013E731CE8EC011AA2
:10CE3000E9EC012A7FF465AF8AED048ABDEC048B2E
:10CE4000BDE8F087F1EE611AB3EE002A72E700BF89
:10CE5000000000002DE9F00F00F5D632002700F5A4
:10CE6000CE3684B00023836000F5CD3CC2F8C47098
:10CE7000C2F8C870C2F8CC70C2F8D070012502F1B7
:10CE8000D40706F1380B0561457000970370837075
:10CE90000CF5DA780CF5D87906F1300706F1340C88
:10CEA00082460546064601901C460291039258466A
:10CEB0000AF5CD31DFED976A9FED977ADFED977A2E
:10CEC000DFF86CB2C1F8ACB106F5CE32C1ED696ADB
:10CED00081ED6A7A06F5D031C8ED007A02F140039F
:10CEE000C9ED007AC2F82CB0C2ED096A82ED0A7A67
:10CEF00001F1400BCCED007AC7ED007A9FED870A77
:10CF00001A46A2EC010A203303ED070A82ED010A5A
:10CF100003ED050A03ED040A03ED030A03ED020A1B
:10CF200003ED010A5B45E9D1019B021923444FF04F
:10CF3000010B03F5D033C2F804B0002202511A6489
:10CF400004F5856405F5CD33DFF8E8B181ED110A0C
:10CF5000B4F5855F0AF1140A08F1140809F11409FF
:10CF600006F585660CF5856C07F58567C3F8F4B1A1
:10CF700005F10C0583ED7E0A83ED7F0A98D101A8A7
:10CF800007C800F5D73000F5947601F58037716059
:10CF90008B4600232BF8023B103121F80E3CABF8F6
:10CFA000023021F80A3C21F8083C21F8063C21F81F
:10CFB000043C21F8023C8F42EAD1594DDFF878A1B8
:10CFC000C0F83C51C0F83051C0F848A1554C564FFC
:10CFD000DFF868B1DFF868A1C0F84C414FF07C552C
:10CFE000C0F84041C0F82831C0F83871C0F8345159
:10CFF000C0F84451C6F838B0C6F834A0C0F86C5137
:10D0000000984A4FDFF83C91DFF83C8185660021AB
:10D010004FF0080CC0F86C90C0F8708002F1D40496
:10D02000C2F8EC30C2F8F410C2F8F810C2F8FC10E4
:10D03000C2F80011C2F80411C2F80811C2F80C11AC
:10D04000C2F81011C2F81411C2F81811C2F81C115C
:10D05000C2F82011C2F82411C2F82811C2F82C110C
:10D06000C2F83011C2F8F0C0C2F8E470D2F83C61E6
:10D07000D2F84031C2F8E870E43290422666636626
:10D0800044D08146C0EB020B49F8047BABF10408A5
:10D090004A45C8F3820139D011B301291BD00229B6
:10D0A00016D0032911D004290CD0052907D0062950
:10D0B0001CBF1E4949F8041B1C4F49F8047B1B4D3B
:10D0C00049F8045B194C49F8044B184849F8040B1B
:10D0D000164E49F8046B154B49F8043B4A4515D0E8
:10D0E000CA4612494AF8041B09F1200949F81C1CD8
:10D0F000CAF8041049F8141C49F8101C49F80C1C13
:10D1000049F8081C49F8041C4A45E9D104B0BDE8B7
:10D11000F00F704722BA003D0AD7233C0000000000
:10D12000E2FFFF3EF5FFFF3EE2FFFF3F00008A42C5
:10D13000CAAA7F3F59F27F3FF5FFFF3F3333333FAA
:10D140000000203FCDCC4C3D0AD7233C2DE9F043D5
:10D150002DED028B437889B0044663B181780529AF
:10D160000ED92669A168B142A8BF00214FF0000086
:10D17000A8BFA160607009B0BDEC028BBDE8F08370
:10D18000012000FA01F515F036086ED07D4FDFF86A
:10D1900010C2DFF810E27C487C4A7D4B039704F50F
:10D1A000CC38B6EE008A002604F5A45508F1EC0947
:10D1B0008DED008ACDF804C0CDF808E0049005920A
:10D1C0000693079608F1F0080435274649E0481F02
:10D1D00041424141284603F0A3FC9FED6E7AFDEEEB
:10D1E000007AE8EE077AB6EE000AF5EEC07AF1EEC4
:10D1F00010FA50D4F4EEC07AF1EE10FAC6BF77EE12
:10D20000C07AF3EE006AFBEE006AB0EE006AF7EE59
:10D21000000AE7EEC60A07F5CC3E043626EEA71A4A
:10D22000F5EE001A21EE202A05F5425C62EE212A75
:10D2300012EE103A12EE900A4FF07C52202E49F86E
:10D24000103B0CF10C0548F8100B07F11007CEED60
:10D25000392ACEF8E82023D008AA324412ED088AF1
:10D26000A1780229B3D10121B4E715F0080065D0F7
:10D270002669002E7FF776AF04F5CC3606F5B27737
:10D28000384604F035FC266908F10108464507F1E7
:10D290009007F5DC66E7F1EE677AF3EE006AB4E733
:10D2A0002669002E7FF75EAF04F5CE3909F134050B
:10D2B00009F1400109F1380800274FF0000EDFF8AE
:10D2C000E8C03548354A41F81CCC41F8180C41F803
:10D2D000142C01F58069C5F800E045F804EC0B4614
:10D2E0009C4600224CF8042B203343F81C2CCCF82D
:10D2F000042043F8142C43F8102C43F80C2C43F86A
:10D30000082C43F8042C4B45EAD1281B4044A0F5D7
:10D31000CE3E01F2044C013700234FF00109B74221
:10D320004EF8309C4EF8343C05F58565C1F8003464
:10D33000CCF8002001F58561BFD113E7E9077FF53F
:10D3400010AF26694FF0400999FBF6F3002EA3F1C8
:10D3500004057FF707AF25F00102402AB4BF9046CD
:10D360004FF04008074604F114094846FFF79AFABF
:10D37000C9F8188026690137BE4209F21C59F4DC4D
:10D38000F0E600BF1F856B3E6210583ECDCC4C3E90
:10D39000A01A2F3E6F12033A0AD7233CCAAA7F3F36
:10D3A000CDCCCC3E3333B33E22BA003DF0B49C4BDF
:10D3B000DFED9C7A9FED9C6A07460E4615460FCB23
:10D3C000B2EE087AF3EE086AB0EE003A8EB070EE74
:10D3D000A62A30EEC75A70EE871A70EEE75A70EE42
:10D3E000A74A30EE862AB4EEC31A01ACF1EE10FA69
:10D3F000CDED080A8DED050A8DED065ACDED0A1A20
:10D40000CDED075ACDED094A8DED0B2ACDED0C2A55
:10D41000CDED0D2A84E80F00C0F2948031EE431A5E
:10D420003C69824FFDEEC14A04F1FF3C0CEB8C00DD
:10D4300014EE902A0CEB40031A4407EB4211002D26
:10D440007DD00C46F4EC012A01EB85056F1A32EE13
:10D45000A03A381FAC42C0F38202A6EC013A6ED06B
:10D46000BAB3012A2DD0022A25D0032A1DD0042ABE
:10D4700015D0052A0DD0062A05D0B4EC010A70EEAD
:10D48000203AE6EC013AF4EC017A77EEA01AE6ECE9
:10D49000011AB4EC017A77EE206AE6EC016AB4EC8A
:10D4A000014A34EE205AA6EC015AB4EC016A76EE39
:10D4B000205AE6EC015AB4EC012A32EE201AA6EC0E
:10D4C000011AF4EC014A74EEA02AAC42E6EC012AFF
:10D4D00035D0A446BCEC013A33EE200A3346A3EC27
:10D4E000010AD4ED013A73EEA07A2034C6ED017A38
:10D4F000DCED011A31EEA07A203683ED017A54ED8D
:10D50000056A36EEA04A06ED054A14ED045A35EEDA
:10D51000206A06ED046A54ED035A35EEA02A06EDA2
:10D52000032A14ED021A71EE204A46ED024A54ED28
:10D53000012A32EEA03AAC4206ED013AC9D10EB052
:10D54000F0BC7047681EB5EB5004F8D03146A70018
:10D5500000232CE0A5EEC00A1CED092A5CED082A88
:10D5600020EE003A23EE030A60EE003A63EEE37A1F
:10D57000E7EE861A181932EEC26A03F00306A6EE29
:10D58000212A0DF1380C854201EB070281ED002ABA
:10D590000CEB860603F1010301F1040105D956EDF8
:10D5A0000D5A32EE252A82ED002AA342C7D0B0EEF2
:10D5B000000AF1EE0C3AF7EE001ADFED1D7AB6EE36
:10D5C000006A33B321EE237A71EEC16ABDEEC74A19
:10D5D0000EAAB8EEC45A14EE106A77EE455AA6EEBB
:10D5E000A71A02EB860CF4EEC65AF1EE10FAB1D58A
:10D5F00075EEA51A1CED092A5CED082A21EEA17A28
:10D6000067EE076A26EEA64A24EE045A65EE061A6D
:10D61000B0E7F0EE642AB0EE602ADFED061AA9E763
:10D620003869010827A0E0400A289841A00000209E
:10D63000CDCC4C3E000000002DE9F0035478069F4D
:10D640001CB185688D4200F0508100F5D63601EBA3
:10D65000810200EB820404F5CD3808F5D272D2EDD8
:10D66000037A92ED047A06F5A47807F1FF3C002FC7
:10D6700000F0148198ED006A92ED011AD2ED001AC3
:10D68000D2ED025AA1EE676A06F5A6740CF0030902
:10D69000F0EE672AA7EEE16ABD1EB0EE473A36EE1D
:10D6A000475A25EE252AE1EE822AA1EEA23AF0EEB3
:10D6B000627AB0EE437AE1EE827AA1EEA27A04EDCC
:10D6C000013ABCF1000F00F0E980B9F1000F6ED013
:10D6D000B9F1010F4AD0B9F1020F24D0D4ED003ACC
:10D6E00092ED014AD2ED004AD2ED026AE4EE673AC9
:10D6F00006F5A874013DB0EE671AE7EEE43AF0EEE5
:10D70000471A73EEC70A20EEA66AA4EE861AE4EE64
:10D71000811AF0EE417AB0EE617AE4EE867AA4EEF8
:10D72000817A44ED011A94ED002A92ED015AD2ED6E
:10D73000002AD2ED025AA5EE672A013DB0EE674AF3
:10D74000A7EEE22AF0EE474A32EE473A63EE253A78
:10D75000A2EEA34AE2EE844AF0EE447AB0EE647A96
:10D76000E2EEA37AA2EE847AE4EC014AD4ED000A58
:10D7700092ED016AD2ED006A92ED021AE6EE670AB6
:10D78000013D6E1CB0EE675AE7EEE60A70EEC71A6E
:10D7900021EE812AA6EE825AA6EE857AF0EE457A2F
:10D7A000A4EC017AE6EE827AA6EE857A76D0D2ED06
:10D7B000015AD4ED002A92ED003AD2ED023AE5EE9C
:10D7C000E72A2646043D1034E7EEC32A32EEC74A64
:10D7D00064EE230AE3EE207AA3EE277AF0EE674A9E
:10D7E000E3EE204AA6EC017A92ED011A14ED036AE9
:10D7F000D2ED001A92ED022AD6ED016AA1EE646A1A
:10D80000A3EE277AA4EEE16A36EE475A65EE027A75
:10D81000E1EEA74AA1EEA47AF0EE642AE1EEA72A8F
:10D8200086ED007AD2ED015A92ED003AD2ED023A3D
:10D8300054ED010AE5EEE26A6E1CA1EEA47AE2EE76
:10D84000C36A36EEC74A64EE234AE3EE242AA3EE07
:10D85000227AB0EE626AA3EE246A04ED027A92EDB7
:10D86000011AD2ED001A92ED022AE1EE460AA3EE69
:10D87000227AE6EE610AF0EE462A70EEC76A26EEDC
:10D88000825AE1EE852AA1EEA27AF0EE627A04EDE8
:10D89000017AE1EE857AA1EEA27A88D140F21C5C91
:10D8A0000CFB010182ED047AC2ED037A81ED050AD9
:10D8B000D3F80090C1F8189093ED010A20EE007A99
:10D8C00001F1140581ED077A00F5D734D868E860D6
:10D8D0009B686B6141462846069704F1680204F193
:10D8E000C803BDE8F003FFF7F1B91278002A3FF44E
:10D8F000ACAE60EEA06ADFED187ADFED185A184A78
:10D90000184CB3EE087AE6EE877A00F5D636B5EE17
:10D91000006ABDEEE71AD6ED521AB8EEC15A11EE02
:10D92000108A37EEC52A02EB880922EE253AD9ED96
:10D93000002AFDEEC33A13EE905A04EB850C9CEDE1
:10D94000004A62EE844A64EE866AC6EEA00A71EE70
:10D95000A07AC6ED527A7AE60000004300008043C8
:10D9600040CE010844D20108F0B401EBC1040546E1
:10D9700000EB041000F5CC3C5778049E0CF5B07415
:10D98000201D17B1AF688F421AD084ED010A1C68C0
:10D990004460D3F804C0C0F808C0DA6842610027C8
:10D9A00007619C68C46005F5D73305F5D635049644
:10D9B00005F5A47103F16802F0BCC83304F0F0B8B7
:10D9C0001278002AE1D04FF07E51C1620163DCE79A
:10D9D0002DE9F04F2DED028B0F46817895B001298E
:10D9E0000446209E05921D46B0EE408AF0EE608A05
:10D9F00000F0F686042901F0248101238DED0C0A44
:10DA00000393D4F80880B84501F0478007EB8700FE
:10DA100004EB800C0CF5CD3904F5D63A09F5D27932
:10DA20000AF5A47BCDF81CA099ED032AD9ED046A70
:10DA3000CDF810B0731E002E01F08A82DDF810A020
:10DA400099ED014ADAED003A99ED005AD9ED024A12
:10DA5000E4EE423AD34603F003015A1EE2EE453AA1
:10DA600033EEE61A21EE243AA5EE032AE5EE026A29
:10DA7000F0EE425AE5EE035AB0EE667AF0EE657AC1
:10DA8000A5EE027AEBEC016A002B00F0E980002998
:10DA90006BD0012947D0022922D0DBED000A99ED95
:10DAA000010AD9ED001AD9ED022AE0EE650A013A21
:10DAB000F0EE656AE5EEE10AF0EE473A30EEC76A4D
:10DAC00026EE222AE1EE826AE1EEA63AF0EE667ACE
:10DAD000B0EE637AE1EE827AA1EEA67AEBEC013A3F
